:020000040800F2
:10000000B0100020AD0200089B11000897110008F5
:1000100099110008F50200083518000800000000DA
:100020000000000000000000000000001917000898
:10003000E9030008000000009D1100081B170008DC
:10004000C7020008C7020008C7020008C70200086C
:10005000C7020008C7020008C7020008C70200085C
:10006000C7020008C7020008C7020008C70200084C
:10007000C7020008C7020008C7020008C70200083C
:10008000C7020008C7020008C7020008C70200082C
:10009000C7020008C7020008C7020008C70200081C
:1000A000C7020008C7020008C7020008C70200080C
:1000B000C7020008C7020008C7020008C7020008FC
:1000C000C7020008C7020008C7020008C7020008EC
:1000D000C7020008C7020008C7020008C7020008DC
:1000E000C7020008C702000800000000C70200089D
:1000F000C7020008C7020008C7020008C7020008BC
:10010000C7020008C7020008C7020008C7020008AB
:10011000C7020008C7020008C7020008C70200089B
:10012000C7020008C7020008C7020008C70200088B
:10013000C7020008C7020008C7020008C70200087B
:1001400000000000000000000000000000000000AF
:10015000C7020008C7020008C7020008C70200085B
:10016000C7020008C7020008C7020008C70200084B
:10017000C7020008C7020008C7020008C70200083B
:10018000C7020008C7020008C7020008C70200082B
:10019000C7020008C7020008C7020008C70200081B
:1001A000C7020008C7020008C7020008C70200080B
:1001B000C7020008C7020008C7020008C7020008FB
:1001C000C7020008C7020008C7020008C7020008EB
:1001D000C7020008C7020008C7020008C7020008DB
:1001E000C7020008C7020008C7020008C7020008CB
:1001F000C7020008C7020008C7020008C7020008BB
:10020000C7020008C7020008C7020008C7020008AA
:10021000C7020008C7020008C7020008C70200089A
:10022000C7020008C7020008C7020008000000005B
:10023000C7020008C702000800000000C70200084B
:10024000C7020008C7020008C7020008C70200086A
:10025000C7020008C7020008C7020008C70200085A
:10026000C7020008C7020008C7020008C70200084A
:10027000C7020008C7020008C7020008000000000B
:10028000C702000800000000C702000800000000CC
:1002900000000000C7020008DFF80CD000F018F8DA
:1002A0000048004779180008B01000200648804731
:1002B00006480047FEE7FEE7FEE7FEE7FEE7FEE74B
:1002C000FEE7FEE7FEE7FEE7AD170008990200082B
:1002D000064C074D06E0E06840F0010394E8070093
:1002E00098471034AC42F6D3FFF7DAFFC418000881
:1002F000E4180008FEE7000070B5BFF34F8FBFF3AE
:100300006F8F184800210368174A23F400330360F5
:100310001160BFF34F8FBFF36F8F124A70321160BD
:10032000BFF34F8F016821F480310160BFF34F8F1D
:10033000101F43F6FF7300680B4D2435C0F34E3198
:10034000C0F3C90203EA4114104600BF44EA8076B4
:100350002E60401EFAD2491EF4D2BFF34F8FBFF376
:100360006F8F70BD14ED00E050EF00E0F0B5BFF30B
:100370004F8FBFF36F8F1A4900200860BFF34F8F74
:10038000BFF36F8F174A116841F400311160BFF35A
:100390004F8FBFF36F8F134970310860BFF34F8FDA
:1003A000081F43F6FF7400680D4D1035C0F34E3141
:1003B000C0F3C90304EA4116184600BF46EA807735
:1003C0002F60401EFAD2491EF4D2BFF34F8F10683F
:1003D00040F480301060BFF34F8FBFF36F8FF0BDDC
:1003E00050EF00E014ED00E0704700002DE9F84FF9
:1003F0006F4D00224FF001094FF0030E4FF00F0B2D
:100400000B6809FA02F803EA0803434574D14C6803
:10041000022C01D0122C0FD1D4080E69570700EB23
:100420008404A246246AFF0E0BFA07FCBE4024EAAD
:100430000C042643CAF820600F79540006680EFAAF
:1004400004FC07F0030726EA0C06A74037430760C1
:100450004E68012E05D0022E03D0112E01D0122E8F
:100460000FD18668CF6826EA0C06A740374387601D
:1004700046680F7926EA0806C7F300179740374306
:100480004760C7688E6827EA0C07A6403E43C660EF
:100490004C68E40030D5474C266846F002062660DA
:1004A000246822F0030606F1B04604F0020400942A
:1004B0009407270FD6F80844DFF8FC800BFA07FCF6
:1004C000404524EA0C0402D14FF0000C41E0DFF873
:1004D000ECC0604502D14FF0010C3AE0DFF8E0C01B
:1004E000604502D14FF0020C33E0DFF8D8C0604520
:1004F00003D14FF0030C2CE053E0DFF8CCC0604593
:1005000002D14FF0040C24E0DFF8C0C0604502D1F6
:100510004FF0050C1DE0DFF8B8C0604502D14FF088
:10052000060C16E0DFF8ACC0604502D14FF0070CB6
:100530000FE0DFF8A4C0604502D14FF0080C08E0DE
:10054000DFF898C0604502D14FF0090C01E04FF090
:100550000A0C0CFA07FC4CEA040CC6F808C42C6818
:100560004E6824EA0304F60300D51C432C606C6833
:100570004E6824EA0304B60300D51C436C604FF0B8
:10058000B0444F682668FF0226EA030600D51E43E2
:1005900026604F686668BF0226EA030600D51E4340
:1005A0006660521C102AFFF42BAFBDE8F88F0000E4
:1005B00080000058F4440258000002580004025819
:1005C00000080258000C025800100258001402588B
:1005D00000180258001C025800200258002402583B
:1005E00001488068704700000800002002488168C8
:1005F000027811448160704708000020032010B584
:1006000000F04CF80F2000F007F808B1012010BDF1
:1006100000F022F8002010BD70B50D4D04464FF4D7
:100620007A700C4A29781268B0FBF1F0B2FBF0F056
:1006300000F09EFD48B9102C07D200222146501E22
:1006400000F00CF800206C6070BD012070BD00004F
:100650000800002004000020704700000E4BF0B49A
:100660001B680D46C3F30223C3F10706042E00D90D
:100670000426191D072901D2002300E0DB1E0124F6
:1006800004FA06F19C40491E2940641E994014401A
:100690002143F0BC01F0CFB80CED00E0064900F0BA
:1006A000070210B54FF6FF040868044B204040EAEB
:1006B00002201843086010BD0CED00E00000FA05B0
:1006C0002DE9F84F1E4615468A460446FFF788FF77
:1006D000814694F8400001280ED001274FF0000811
:1006E00084F8407094F84100012807D05FF00200C0
:1006F00084F84080BDE8F88F0220FBE74221C4F86F
:10070000448084F84110002220214B462046009668
:1007100000F0DEFF0028EBD121682868886221689C
:10072000686848622168A868C86220682969026808
:1007300022F4400242F4800211430160E9684FF064
:1007400000622046CAF82810514600F028FD012218
:100750004B4608212046009600F0BAFF0028C7D17A
:1007600022680821D16084F84170C1E72DE9F84F73
:1007700017468B460446FFF733FF824694F8400045
:1007800001280ED001264FF0000884F8406094F84C
:100790004100012807D0022584F840802846BDE8A2
:1007A000F88F0220FBE74FF00209C4F8448084F878
:1007B00041900022202153462046009700F088FFF8
:1007C0000500E9D100225946204600F0E8FCDBF89C
:1007D000240058B90122534602212046009700F018
:1007E00077FF0500D8D12168C1F80C9084F84160EA
:1007F000D2E710B5040015D094F84000012813D0BA
:10080000012084F840002068016821F001010160A6
:10081000204600F0C9F80020606484F8410084F8A4
:10082000400010BD012010BD022010BD2DE9F84F81
:100830000446FFF7D5FE064664B194F8400001284F
:100840000BD000254FF0010A84F840A094F8410035
:1008500028B10CE00120BDE8F88F0220FBE784F806
:100860004050204600F0A1F841F28830A064216891
:100870004FF47062A06892FAA2F30A68401EB3FABD
:1008800083F322F47062984002430A60A06C002255
:10089000202133460090204600F01AFFB0BB2368A9
:1008A0004FF07F42666892FAA2F7E168D4E907C286
:1008B00099461B68B7FA87F8164F41EA0C0106FA09
:1008C00008F6324311434FF4F8123B4092FAA2F279
:1008D0001943C9F80010B2FA82FC2268D4E9043145
:1008E0000D4FA669D2F8048003FA0CF308EA070852
:1008F000314348EA030841EA0801516021680A6867
:1009000042F001030B60656484F841A084F8405014
:10091000A1E700002FFFFF00FEF8E0FF2DE9F843FC
:10092000164688460446FFF75BFE034694F84000EF
:1009300001280ED0012084F84000002794F84100DF
:10094000012808D05FF0020584F840702846BDE811
:10095000F8830220FBE7A06C8221676484F84110D1
:10096000002220210090204600F0B2FE0500EBD1CD
:1009700020687268016821F0080111430160706805
:1009800008280AD122681021306810632068C160ED
:100990002068016841F4801101604FF040624146D7
:1009A000204600F0FCFBCFE7704770472DE9F04789
:1009B000DFF8C49104460E46D9F8000000F00700A5
:1009C000B0420CD2D9F8001021F007013143C9F828
:1009D0000010D9F8000000F00700B04272D1207872
:1009E000DFF89881800707D5E268D8F8001021F079
:1009F0000F011143C8F800102078C00767D05F4985
:100A0000A368D8F80020183922F470621A43C8F895
:100A10000020606802281CD003281DD00968012826
:100A20001DD04907002963DA544D083D296821F09B
:100A3000070101432960FFF7D3FD6168074641F2D2
:100A40008830022914D0032920D0012982462AD0D7
:100A500039E009688903E5E709688901E2E7C90522
:100A6000E0E700BFFFF7BCFDC11B514501D926E0FF
:100A700082462868C0F3C2000228F3D127E000BFF5
:100A8000FFF7AEFDC11B514501D918E08246286829
:100A9000C0F3C2000328F3D119E000BFFFF7A0FDA7
:100AA000C11B51450BD82868C0F3C2000128F5D1FD
:100AB0000DE000BFFFF794FDC11B514503D9032092
:100AC000BDE8F08714E0286810F0380FF2D1D9F8AB
:100AD0000010484601F00701B1420BD9016821F02E
:100AE000070131430160006800F00700B04201D007
:100AF0000120E5E72078400707D52269D8F80010E3
:100B000021F070011143C8F8001021781B48001D26
:100B1000090705D56269016821F070011143016080
:100B20002178C90605D5A269016821F4E061114365
:100B300001602078800607D51048E2690830016816
:100B400021F070011143016000F01EF8D8F8001088
:100B50004FF4807292FAA2F201F47061B2FA82F25A
:100B6000D140074A515CC840064908600F20FFF792
:100B700053FD0020A4E70000002000521844025852
:100B8000B4180008040000204749F0B54748096838
:100B9000454B103B11F0380409D00111082C04D04A
:100BA000434A102C0BD0182C0BD00846F0BD196806
:100BB0008906FBD51968C1F3C101C840F0BD1046D4
:100BC000F0BD394CDFF8E0C01834261D0CF1240CC0
:100BD0002768351D2468DFED370AB7EE001A36683E
:100BE000DCF800C017F0030706F00106C4F3051493
:100BF000CCF3CC0C1CFB06F600EE106AB8EE400AF3
:100C000009D0012F01D0022F3BD02868B1FBF4F1AD
:100C1000C0F308003AE01968890615D51A682968F2
:100C2000C2F3C102C1F30801D04001EE901AB0FB3B
:100C3000F4F0F8EE611A40EE201A00EE100A71EEA0
:100C4000810AB8EE400A0BE02968B0FBF4F0C1F36A
:100C5000080101EE901AB8EE612A01EE900A1BE03D
:100C600020EE200A2868C0F34620401C00EE900ABF
:100C7000F8EE600A80EE201ABCEEC10A10EE100AEF
:100C8000F0BD2868B2FBF4F1C0F3080001EE900A51
:100C9000B8EE612A01EE901A00EE202AB8EE610A41
:100CA00072EE010ADCE70000104402580090D00305
:100CB00040787D01000000392DE9F05FFD4C0546CC
:100CC000007841F28838DFF8EC93103CF94FC00708
:100CD00009F118094CD03868C0F3C20002281AD0B4
:100CE0003868C0F3C200032805D1D9F8000000F02D
:100CF000030002280FD06868B0F5803F12D010B111
:100D0000B0F5A02F18D0206820F480302060206833
:100D100020F4802009E02068800329D56868002835
:100D20006CD025E0206840F480302060686890B185
:100D3000FFF756FC06460AE0206840F48020206059
:100D4000F0E700BFFFF74CFC811B414575D82068D8
:100D50008003F7D50CE0FFF743FC064605E000BF33
:100D6000FFF73EFC811B4145F0D820688003F7D493
:100D70002878D04E0C3E800769D538684FF47C3B0C
:100D800010F0380F13D03868C0F3C200032803D125
:100D9000D9F8000080070AD0E86870B3216821F014
:100DA000190101432160FFF71BFC82462EE02068F9
:100DB000400702D5E8680028B2D0E968206820F032
:100DC000190008432060FFF70BFC824606E000BFD5
:100DD000FFF706FCA0EB0A000228B7D820684007FE
:100DE000F6D5296932689BFAABF0B0FA80F0814001
:100DF00022F47C300843306029E016E0BEE000BFFA
:100E0000FFF7EEFBA0EB0A0002289FD820684007FE
:100E1000F6D5286932689BFAABF1B1FA81F18840C6
:100E200022F47C310143316011E0206820F00100A0
:100E30002060FFF7D5FB824606E0EFE0FFF7D0FB2E
:100E4000A0EB0A0002288FD820684007F6D4287843
:100E5000C00647D538684FF0F84BC0F3C2000128F0
:100E600015D03868C0F3C200032805D1D9F80000B6
:100E700000F0030001280AD0E8690028206822D089
:100E800040F080002060FFF7ABFB82460CE020685A
:100E9000C0050CD5E869802870D108E0FFF7A0FBF9
:100EA000A0EB0A00022898D82068C005F6D5286A69
:100EB00032689BFAABF1B1FA81F1884022F0F84137
:100EC000014331600EE020F080002060FFF788FBD6
:100ED000064604E0FFF784FB801B022895D82068B3
:100EE000C005F7D42878000729D5724869696430AD
:100EF00000298246016811D041F001010160FFF72D
:100F00006FFB064605E000BFFFF76AFB801B022867
:100F100099D8DAF800008007F6D510E021F0010139
:100F20000160FFF75DFB064605E000BFFFF758FBD9
:100F3000801B022872D8DAF800008007F6D42878DF
:100F4000800625D5A8690028206810D040F480507C
:100F50002060FFF745FB064605E000BFFFF740FBBA
:100F6000801B02285AD820688004F7D510E020F4AE
:100F700080502060FFF734FB064606E0D4E000BF57
:100F8000FFF72EFB801B022848D820688004F7D486
:100F9000287840074DD5DFF820A1DAF8001041F499
:100FA0008071CAF80010FFF71BFB064605E000BF82
:100FB000FFF716FB801B642830D8DAF80000C00564
:100FC000F6D53C4EA868603601280AD008B105283D
:100FD00011D0306820F001003060306820F004004B
:100FE00002E0306840F001003060A86890B1FFF77F
:100FF000F7FA82460AE0306840F004003060F0E71B
:10100000FFF7EEFAA0EB0A01414507D830688007E8
:10101000F6D50EE0FFF7E4FA824607E083E000BF72
:10102000FFF7DEFAA0EB0A0141457CD83068800763
:10103000F6D4686AE8B33968C1F3C201032973D0F2
:101040000228206820F08070206003D0FFF7C8FAE3
:10105000054683E0FFF7C4FA064604E0FFF7C0FA4E
:10106000801B022877D820688001F7D4EB6A40F211
:10107000F332D9F800104FF4FE0755F8286F91436A
:1010800041EA03113143C9F80010287B4FF0FE4CB0
:10109000084EB5F8088040022B8A20362A7DA8F138
:1010A0000108311DA0F5007080B25B1EC8F308086E
:1010B00004E056E01044025800480258521E07EA65
:1010C000034340EA08000CEA02674FF6F87218433F
:1010D000384330600B6892FAA2F72E6AB7FA87F7A6
:1010E00022489343BE4033430B600168AA6921F054
:1010F0000C01114301600168EA6921F0020111430A
:101100000160016841F480310160016841F40031FF
:101110000160016841F480210160016841F0010132
:101120000160206801E016E01DE040F08070206062
:10113000FFF756FA054604E0FFF752FA401B022873
:1011400009D820688001F7D50BE000BFFFF748FA07
:10115000401B022802D90320BDE8F09F20688001CF
:10116000F4D40020F8E70120F6E700002C440258F0
:10117000401EB0F1807F10B501D3012010BD4FF0AB
:10118000E02460610F21601700F055FB0020A06192
:101190000721216110BDFEE7FEE7704770472DE98A
:1011A000F0474B6A4FF040692BB14A4503D00468C1
:1011B0008B6A5B1E23614FF4F8048D690B6A002D66
:1011C00073D07BB303688D68DD61CB694D6BB3F180
:1011D000000A28D094FAA4F44F6AD1E90B3CD1E973
:1011E0000486B4FA84F43D43CF6843EA0C03D1F893
:1011F00020C0A6402B438D6933430E6843EA0803A1
:10120000046843EA0C0343EA070343EA0A0343EA98
:1012100005034A4543EA0603C4E000684968816162
:10122000BDE8F08719E0D1E90B3894FAA4F443EA59
:101230000803D1E90887B4FA84F43D43D1E905678E
:10124000D1F810C02B430968A6403343006843EA35
:101250000C0343EA08033B433CE0CE6936B3D1E9D3
:101260000B3CD1F824804F6B43EA0C0394FAA4FCA6
:101270004C6947EA0807D1F80C80BCFA8CFC3B4368
:101280000F6804FA0CF42343D0F800C043EA0803C3
:1012900043EA060343EA050343EA07034A4543EAF0
:1012A0000203CCF81430B8D1BAE717E094FAA4F4EA
:1012B000D1F82480D1E90B3C4F69B4FA84F44E6B29
:1012C00043EA0C03096846EA08060068A74033436E
:1012D0003B432B430B4313434361A1E7EBB3036849
:1012E0008D68DD61CD6935B3D1E90B3C94FAA4F486
:1012F000D1F824804E6B43EA0C03D1E904C7B4FA59
:1013000084F446EA0806D1F8208033438E69A7406A
:101310003B43CC6843EA0C03076843EA080343EA0B
:10132000040343EA050343EA06034A4543EA02038A
:101330007B61B8D174E7D1E90B374D6BD1E90486F5
:101340003B43006894FAA4F7D1E9084C8969B7FADD
:1013500087F745EA0C052B4300E005E0BE40334328
:1013600043EA08032343B5E7CB69B3F1000A1ED073
:1013700001F12C03D1F824C094FAA4F84D69046853
:10138000C8CB3343CE6847EA0C07B8FA88FC4A4515
:1013900005FA0CF543EA070343EA050343EA0603AB
:1013A00043EA0A0343EA02036361C2D138E74D6AA4
:1013B000002D92D0D1E90B374E6B94FAA4F4496911
:1013C000B4FA84F400683B432E43A14033430B43FB
:1013D00081E700002DE9F04F644887B0016841F4CF
:1013E00080410160006800F4804005905F485838F3
:1013F000016841F480410160016821F4804101608D
:101400005A480C30016841F002010160016801F0A6
:1014100002010591016841F020010160016801F0BD
:1014200020010591016841F020010160016801F08F
:1014300020010591016841F020010160016801F07F
:1014400020010591016841F020010160016801F06F
:1014500020010591016841F004010160016801F07B
:1014600004010591016841F080010160016801F00B
:1014700080010591016841F080010160016801F07F
:1014800080010591016841F040010160016801F0AF
:1014900040010591016841F04001016000680924A4
:1014A00004264FF0030800F040004FF0000A022726
:1014B000CDF80C806946CDE904408DE8C0042C4885
:1014C000FEF794FF2B480A254FF0400B4FF001091F
:1014D0006946CDF800B0CDF808900495FEF786FF78
:1014E000720225488DE88402CDE903846946FEF73F
:1014F0007DFFDFF88880B101CDF808A04046049553
:1015000000916946FEF772FF1D4F69460096384606
:101510000494FEF76BFFF601694640460096049579
:10152000FEF764FF08206946049400903846FEF7F1
:101530005DFF80206946049400904046FEF756FF08
:101540000C4869460096FEF751FF69464046CDF8C3
:1015500000B0FEF74BFF7001009006486946049406
:10156000FEF744FF07B0BDE8F08F0000D4440258F6
:1015700000040258001802580008025800140258CB
:10158000001C0258F0B5A5B00746002441F2883689
:101590004FF48075324666201690CDE91C541E9497
:1015A00016A938461F941B94219422942394FFF784
:1015B000DDF830BB9920324616A916903846FFF761
:1015C000D5F8F0B92A043346CDE90E540DF10C0CD0
:1015D0001394CDE9104292101594029405210891BC
:1015E0001025CDE90642022640F201110D9402AA0F
:1015F000149438468CE8620008A9FFF761F80028C7
:1016000000D0012025B0F0BD2DE9F043DFF8BC800B
:1016100091B02D48C8F800004046FFF7EAF8E8BB53
:10162000FFF7D8FE4FF08060002490FAA0F001226E
:10163000B0FA80F608F14C004FF4005900F138017F
:10164000C4611023046280274462761E44619502BF
:10165000C4620463C0F80C9044639005C1E904407F
:101660004020C1E90232C8F80420C8E9077008F137
:10167000080080E84C00C8E905544046FFF7D6F85A
:1016800060B94046FFF77EFF40B9A910CDF80C9035
:101690006B22082605964FF0407300E010E0CDE97C
:1016A00008430B9440460C94CDE9061500920EAA0F
:1016B00069460D940F940E94FFF730F9002800D07E
:1016C000012011B0BDE8F08300500052140000204A
:1016D0002DE9F041984616460F460446069D12E055
:1016E000681C10D02DB1FEF77BFFA0EB0800A842CC
:1016F00009D9042084F84100606C40F00100606466
:101700000120BDE8F08120688068384000D00120C9
:10171000B042E5D10020F4E77047FEF767BF000054
:10172000214830B59DB0016821F0040101601E48D8
:101730000C300024016841F440410160016801F46B
:1017400040411B9101688904FCD5022003940121CA
:10175000009105230794C2030192A0211294CDE9C0
:101760000A0304220990CDE90C100825CDE90E20CA
:10177000CDE910546846FFF79FFA00B1FEE740201C
:101780001A903F210301CDE916500322CDE9180339
:1017900013AB13A883E816000421FFF707F900280C
:1017A00000D0FEE71DB030BD0C4802581D4AF0B510
:1017B0001D49146800201C4B44F47004146010335D
:1017C0000A681A4C42F001020A6018600D68164A55
:1017D00025400D601832131D1C1D134D1060283557
:1017E00018602A1D2060131D1C1D2860251D106017
:1017F0002A1D1860131D20601C1D286010601860D1
:1018000020600A680124084B064FE606084D603345
:10181000803F22F480220A601860C5F808413E60CB
:10182000F0BD000088ED00E0004402587FEDF6EACC
:1018300000800051FEE7090700284FEA116104DB30
:1018400000F1E02080F80014704700F00F0000F174
:10185000E02080F8141D704702E008C8121F08C17C
:10186000002AFAD170477047002001E001C1121F21
:10187000002AFBD170470000FEF778FDFEF7BEFEA0
:10188000FFF74EFF0420FFF7BFFE00B1FEE7FEF7B3
:1018900033FD4FF0E02200214FF010401161044A67
:1018A00041681160006880F308888847FEE70000FF
:1018B00000000020000000000102030401020304F4
:1018C00006070809E41800080000002014000000C2
:1018D00058180008F8180008140000209C10000098
:1018E00068180008000000000090D003010000000C
:0818F0001000000000000000E0
:040000050800029954
:00000001FF
